:020000040000FA
:1000000000002420A1040000B9040000BB0400008B
:10001000BD040000BF040000C10400000000000097
:10002000000000000000000000000000C304000009
:10003000C504000000000000C7040000C90400005F
:10004000CB040000CF040000D3040000D70400005C
:10005000DB040000DF040000E3040000E70400000C
:10006000EB040000EF040000F3040000F7040000BC
:10007000FB040000FF04000003050000070500006A
:100080000B050000870500008705000087050000BC
:100090008D06000013050000170500001B05000079
:1000A0001F05000023050000270500002B050000A8
:1000B0002F05000033050000370500003B05000058
:1000C0003F05000043050000470500004B05000008
:1000D0004F0500005305000087050000870500005C
:1000E00087050000870500008705000087050000E0
:1000F00087050000870500008705000087050000D0
:1001000087050000870500008705000087050000BF
:1001100087050000870500008705000087050000AF
:10012000570500005B0500005F0500006305000047
:1001300067050000870500008705000087050000AF
:10014000870500008705000087050000870500007F
:10015000870500008705000087050000870500006F
:10016000870500008705000087050000870500005F
:10017000870500008705000087050000870500004F
:10018000870500008705000087050000870500003F
:10019000870500008705000087050000870500002F
:1001A00087050000870500006B0500006F05000053
:1001B000870500008705000087050000870500000F
:1001C00087050000870500008705000087050000FF
:1001D00087050000870500008705000087050000EF
:1001E00087050000870500008705000087050000DF
:1001F0007305000087050000770500007B050000FF
:1002000087050000870500007F05000083050000CA
:1002100087050000870500008705000087050000AE
:10022000870500008705000087050000870500009E
:10023000870500008705000087050000870500008E
:10024000870500008705000087050000870500007E
:10025000870500008705000087050000870500006E
:10026000870500008705000087050000870500005E
:10027000870500008705000087050000870500004E
:10028000870500008705000087050000870500003E
:10029000870500008705000087050000870500002E
:1002A000870500008705000087050000870500001E
:1002B000870500008705000087050000870500000E
:1002C00087050000870500008705000087050000FE
:1002D00087050000870500008705000087050000EE
:1002E00087050000870500008705000087050000DE
:1002F00087050000870500008705000087050000CE
:1003000087050000870500008705000087050000BD
:1003100087050000870500008705000087050000AD
:10032000870500008705000087050000870500009D
:10033000870500008705000087050000870500008D
:10034000870500008705000087050000870500007D
:10035000870500008705000087050000870500006D
:10036000870500008705000087050000870500005D
:10037000870500008705000087050000870500004D
:10038000870500008705000087050000870500003D
:10039000870500008705000087050000870500002D
:1003A000870500008705000087050000870500001D
:1003B000870500008705000087050000870500000D
:1003C00087050000870500008705000087050000FD
:1003D00087050000870500008705000087050000ED
:1003E00087050000870500008705000087050000DD
:1003F000870500008705000087050000FFFFFFFF5D
:020000040000FA
:1004000000F002F800F03CF80AA090E8000C8244EA
:100410008344AAF10107DA4501D100F031F8AFF2C7
:10042000090EBAE80F0013F0010F18BFFB1A43F0D2
:100430000103184790050000B0050000103A24BFE2
:1004400078C878C1FAD8520724BF30C830C144BF39
:1004500004680C607047000000230024002500267B
:10046000103A28BF78C1FBD8520728BF30C148BF17
:100470000B6070471FB500F0A0FA1FBD10B510BD8E
:10048000DFF80CD0FFF7F6FF00F095FA00F0E6F881
:100490000000242003B4FFF7F1FF03BC00F089FA49
:1004A00072B63A483A4901600A6882F308883948C6
:1004B000804762B638480047FEE7FEE7FEE7FEE702
:1004C000FEE7FEE7FEE7FEE7FEE734480047344874
:1004D0000047344800473448004734480047344810
:1004E0000047344800473448004734480047344800
:1004F00000473448004734480047344800473448F0
:1005000000473448004734480047344800473448DF
:1005100000473448004734480047344800473448CF
:1005200000473448004734480047344800473448BF
:1005300000473448004734480047344800473448AF
:10054000004734480047344800473448004734489F
:10055000004734480047344800473448004734488F
:10056000004734480047344800473448004734487F
:10057000004734480047344800473448004734486F
:1005800000473448004734480047000008ED00E0C9
:1005900000000000FD0800000104000087050000C5
:1005A000870500008705000087050000870500001B
:1005B000870500008705000087050000870500000B
:1005C00087050000870500008705000087050000FB
:1005D00087050000870500008705000087050000EB
:1005E00071060000210700003D07000059070000C8
:1005F0007507000091070000AD070000C907000063
:1006000087050000870500008705000087050000BA
:1006100087050000870500008705000087050000AA
:10062000870500008705000087050000870500009A
:10063000870500008705000087050000870500008A
:10064000870500008705000087050000870500007A
:1006500087050000870500008705000010B50446E7
:10066000AFF300802046BDE81040FFF713BF000045
:1006700010B5034841680348034A1268904710BD0B
:10068000E8002020004018400800202000202149D8
:10069000496901F4001109B31E49C969C8B21E496C
:1006A000098801F40041C9B91B49098801F4804156
:1006B00061B10A2803D00021174A118020E01649B1
:1006C000098841F40041144A118019E00D2806D12F
:1006D0001149098841F480410F4A118010E00E4908
:1006E0000988C1F30D010D4A50540B490988491C72
:1006F000094A118011460988C72901DD00211180AE
:1007000000BF00BF00BFBFF34F8F00BF00BF00BFDF
:1007100070470000004018400400202020002020E6
:1007200010B5034881680348034A1268904710BD1A
:10073000E8002020008018400800202010B5034861
:10074000C1680348034A1268904710BDE8002020A2
:1007500000C018400800202010B503480169034874
:10076000034A1268904710BDE8002020000019409D
:100770000800202010B5034841690348034A126865
:10078000904710BDE80020200040194008002020BC
:1007900010B5034881690348034A1268904710BDA9
:1007A000E8002020008019400800202010B50348F0
:1007B000C1690348034A1268904710BDE800202031
:1007C00000C019400800202010B50348016A034802
:1007D000034A1268904710BDE800202000001A402C
:1007E0000800202010B50023234C236000BF00BF69
:1007F00000BFBFF34F8F00BF00BF00BF231F1868AB
:10080000C0F34E3100BFC0F3C90200BF43F6E0732E
:1008100003EA41134FF0404404EA82742343174C27
:10082000236000BF00BF131EA2F10102EED10B1E18
:10083000A1F10101E7D100BF00BF00BFBFF34F8F9F
:1008400000BF00BF00BF0C4B703B1B6843F48033FC
:10085000094C703C236000BF00BF00BFBFF34F8F47
:1008600000BF00BF00BF00BF00BF00BFBFF36F8F5E
:1008700000BF00BF00BF10BD84ED00E060EF00E0EE
:1008800000BF00BF00BFBFF34F8F00BF00BF00BF5E
:1008900000BF00BF00BFBFF36F8F00BF00BF00BF2E
:1008A00000201449086000BF00BF00BFBFF34F8F96
:1008B00000BF00BF00BF00BF00BF00BFBFF36F8F0E
:1008C00000BF00BF00BF0C48006840F400300A4978
:1008D000086000BF00BF00BFBFF34F8F00BF00BF65
:1008E00000BF00BF00BF00BFBFF36F8F00BF00BFDE
:1008F00000BF704750EF00E014ED00E010B527484E
:10090000006840F47000254908602548008800F020
:10091000040028B12248008820F004002049088003
:100920002048008800F0040028B11E48008820F00C
:1009300004001C4908801C481C4948604FF6FF70A1
:1009400088600846006820F0800040F020000860C1
:100950004FF0E020006900F0010038B14FF0E020D6
:10096000006920F001004FF0E02108610B48743865
:10097000006800F40030B0F5003F01D0FFF780FFC1
:1009800006487438006800F48030B0F5803F01D02C
:10099000FFF728FF00F00CF810BD000088ED00E024
:1009A00000800B4000000D4020C528D900C00B403E
:1009B000704700BF704700BFFEE74FF04070E1EEA8
:1009C000100A7047E4090000000020200C0000001D
:1009D0003C040000F00900000C0020200001000091
:1009E00058040000000000000000000000000000AB
:0400000500000401F2
:00000001FF
